:020000000328D3
:100006000730831603139F00831207128712871384
:100016008316860187018801890105108312051060
:100026000712871209108316051603308312AC00D7
:100036000330A9001530A6001230A7002330A8000F
:100046002030A2001530AB001230AA002330A000E9
:100056002030A1002808003A03193729051EC028B8
:10006600071009108710891007110911803026061C
:10007600F0008030003A7002031C4D280714260851
:100086008600A603AB032B080F3A031D4C28063047
:10009600A60275288030003AF000803022067002F1
:1000A600031868280710071522088600A203A10373
:1000B60021081F3A031D61280630A2022108153ABD
:1000C600031D67280630A202752880302906F00035
:1000D6008030003A7002031C75280711871429081E
:1000E6008600A9038030003AF000803027067002AF
:1000F60003188928091527088800A703AA032A08D0
:100106000F3A031D88280630A702B12880302C0636
:10011600F0008030003A7002031C972809118914F8
:100126002C088800AC03B12880302806F000803007
:10013600003A7002031CB1288910091428088800A7
:10014600A803A0032008153A031DAB280630A80211
:1001560020081F3A031DB1280630A8020B30FB0009
:100166002630FC005D30FD00FD0BB728FC0BB728E0
:10017600FB0BB728000000003629051A362988012E
:1001860086010710091087108910071109118519B2
:100196003629051A3629051A022985190229091947
:1001A6000229871409140710891007110911033051
:1001B600A50080302506F0008030003A7002031C4E
:1001C600FB2825088600250888000B30FB00263012
:1001D600FC005D30FD00FD0BEE28FC0BEE28FB0B52
:1001E600EE2800000000051EF928FB28A503DC28E0
:1001F6008710091007148910071109153529051AE2
:10020600352985193529091D35298710091007143F
:100216008914071109110330A50080302506F00066
:100226008030003A7002031C2F2925088600250815
:1002360088000B30FB002630FC005D30FD00FD0B16
:100246002229FC0B2229FB0B222900000000051E97
:100256002D292F29A50310298710091407108910A5
:1002660007150911CC282D28860188010B30FB00C3
:100276002630FC005D30FD00FD0B3F29FC0B3F29BD
:0C028600FB0B3F2900000000182848294D
:02400E004A2F37
:00000001FF
